:020000041001E9
:108000003DB8F39600000000000400008434010035
:10801000000000000100000000000000000000005F
:108020000000000000000000000000000000000050
:108030000000000000000000000000000000000040
:108040000000000000000000000000000000000030
:108050000000000000000000000000000000000020
:1084000000F80F08BD9601100D0000003197011013
:1084100031970110319701103197011000000000D1
:108420000000000000000000000000002D97011077
:108430002D970110000000002D9701102D970110BD
:108440002D9701102D9701102D9701102D970110D8
:108450002D9701102D9701102D9701102D970110C8
:108460002D9701102D9701102D9701102D970110B8
:108470002D9701102D9701102D9701102D970110A8
:1086E0000348044B834202D0034B03B11847704741
:1086F0003009020830090208000000000548064B56
:108700001B1AD90F01EBA301491002D0034B03B18F
:1087100018477047300902083009020800000000BD
:1087200010B5064C237843B9FFF7DAFF044B13B1B9
:108730000448AFF300800123237010BD1C0A020817
:108740000000000000B2021008B5054B1BB105493E
:108750000548AFF30080BDE80840FFF7CFBF00BF7A
:1087600000000000200A020800B20210F0B58BB031
:108770000024ADF824408DF826408DF81E400126D7
:108780008DF81F60ADF81C404025069502278DF836
:1087900020702246214606A80BF0F8F98DF8240037
:1087A0008DF812408DF81340ADF8104003958DF808
:1087B00014702A460E4903A80BF0E8F98DF825003D
:1087C0008DF806408DF80760ADF80450009503233E
:1087D0008DF808302246214668460BF0D7F98DF80F
:1087E000260009A809F07AFB024B18600BB0F0BD17
:1087F000380A0208CC0D020808B50AF06FFCFFF732
:10880000B5FF07480BF068FD0AF0C4FC054802F00C
:1088100027FE0023044A1360044A137008BD00BFFA
:108820004C9402107C0A0208C80D0208800C020851
:1088300010B501460B4C2A23238020460EF01CFB6A
:1088400020460EF023FC084B1B88235220460EF0D6
:108850001DFC0246002321460448006809F020FB65
:1088600010BD00BFD00D02084C950210CC0D0208BF
:1088700010B501460B4C2623238020460EF0FCFA4F
:1088800020460EF003FC084B1B88235220460EF0B6
:10889000FDFB0246002321460448006809F000FB66
:1088A00010BD00BFD00D02084C950210CC0D02087F
:1088B00010B5094C094B1A68094920460EF0DCF93D
:1088C00020460EF0E3FB02460023214605480068DF
:1088D00009F0E6FA10BD00BFD00D0208780A0208C0
:1088E000B8910210CC0D020810B5094C094B93E861
:1088F00003002060A180090CA17120460EF0C6FB88
:108900000246002321460448006809F0C9FA10BD58
:10891000D00D0208C4910210CC0D0208A0F1300362
:10892000DBB2092B01D830387047A0F14103DBB22C
:10893000052B01D837387047A0F16103DBB2052B56
:1089400001D85738704700207047A0F13003DBB2E0
:10895000092B05D96138C0B2052803D8012070471A
:108960000120704700207047F8B504460D46124BB1
:108970001E5C3046FFF7E9FF90B101340E4B1F5DDE
:108980003846FFF7E2FF58B13046FFF7C7FF040152
:10899000E4B23846FFF7C2FF04432C700220F8BD52
:1089A000064C3246064920460EF066F92046FFF78F
:1089B0003FFF0320F3E700BF840D0208840C020888
:1089C000CC91021030B583B004460D460DF107017D
:1089D000FFF7CAFF022801D003B030BD9DF8073071
:1089E0001B022B800DF10701A01CFFF7BDFF022821
:1089F000F2D19DF807302A8813432B80ECE730B57D
:108A000083B004460D460DF10601FFF7DBFF022897
:108A100001D003B030BDBDF806301B042B600DF152
:108A20000601201DFFF7CEFF0228F2D1BDF8062077
:108A30002B6813432B60ECE7F0B583B004460D467A
:108A40004E4B1E78002E32D04D4B1F5C3846FFF740
:108A50007CFFB0B93046FFF761FF0601F6B2384639
:108A6000FFF75CFF46EA0003DBB28DF807304549AB
:108A70000A68501C086044498B54404B00221A700D
:108A800015E04248FFF7D4FE4FF0FF3026E00DF12D
:108A900007012046FFF768FF02286CD10234394AEB
:108AA0001368591C11609DF80710374AD154AC4225
:108AB0000FDA334B1B5D242B0BD02A1B012AE6D186
:108AC000621C2F498A5C242AE1D12C4A13700020B1
:108AD00004E02B4B1B5D242B02D0002003B0F0BD23
:108AE0000134274B1B5D0A2B01D00020F6E7284BF1
:108AF0001968284802F0CAFC0446B0B9224A244B3F
:108B00001968244802F0F8FC044608BB204B18689A
:108B1000FFF7CEFE00241B4B1C604FF40072214671
:108B200019480EF0A1F92046D8E7194E02463168DF
:108B300019480EF033F8194D234632681849284673
:108B40000EF09AF82846FFF773FE4FF0FF30C5E7A6
:108B50000F4E0246316813480EF020F80F4D2346A1
:108B60003268114928460EF087F82846FFF760FE64
:108B70004FF0FF30B2E74FF0FF30AFE7800C020854
:108B8000840D0208C80D0208800A0208F491021040
:108B9000780A02087C0A020814920210840C020867
:108BA00040920210689202109092021010B5174B7A
:108BB0001B78242B14D104460A2817DD1449012000
:108BC000FFF71DFF02281DD1104B5B7A242B13D118
:108BD000104B00221A6021460A20FFF72DFF10BD1E
:108BE0000D48FFF725FE4FF0FF30F8E70B48FFF781
:108BF0001FFE4FF0FF30F2E70948FFF719FE4FF074
:108C0000FF30ECE74FF0FF30E9E700BF840D0208CA
:108C1000780A0208C80D0208B8920210F0920210F9
:108C20002C93021010B5084C214608480DF0B6FFF1
:108C30000622074920460EF02EF910B14FF0FF3002
:108C400010BDFFF751FEFEE7840D0208609302108D
:108C50008093021010B502E0FA2003F07DFB0AF0C9
:108C60003FFE10F0020FF7D014480DF0FDFF06E0B4
:108C700001460020FFF7E0FEB0F1FF3F19D0104C95
:108C80000023412221460F48006809F0EFF8002335
:108C900023540D4B1B68002BEAD1094B1B78242B66
:108CA00004D0232BEBD1FFF7BDFFE5E7FFF77EFFF5
:108CB000E2E70648FFF7DCFDFEE700BF88930210FD
:108CC000840D0208CC0D0208C80D0208C0930210E2
:108CD00008B508480DF0C8FFFFF78EFD064B1B686E
:108CE00098690022072100F5D06005F023F9FFF70D
:108CF000B1FF00BFE8930210481B020830B53B4BA0
:108D000019684C1C1C603A4A0525555402311960FB
:108D10000925155502341C60192555540231196076
:108D20004FF0010C02F804C001EB0C041C60292573
:108D3000555404EB0C051D60C1B2115505EB0C0434
:108D40001C604FF0150E02F805E004EB0C051D60E9
:108D50004FF0000E02F804E005EB0C041C604FF02D
:108D6000250E02F805E004EB0C051D6002F804C0B6
:108D700005EB0C041C604FF0750E02F805E004EBE7
:108D80000C051D6002F804C005EB0C041C604FF0DC
:108D9000950C02F805C0651C1D60115502341C605D
:108DA0004FF0810C02F805C002351D6002231355F7
:108DB0001F281ADC02340D4A14600D4B03F805E03D
:108DC000A81C1060C1F120011955E91C11609524FF
:108DD0001C540230106001245C540119116003F826
:108DE00000C0481C106003225A5430BD1012020803
:108DF000100E020801460C4B1868A0B10B4B1B6803
:108E000093420DD10023072B08DC31F91300084AE7
:108E100032F91320904205D10133F4E70120704765
:108E200000207047002070476C1202086812020888
:108E30005812020808B5044B43F8042B4A000146B7
:108E400018460EF015F908BD7012020830B403463A
:108E50001546064C006859689A68DB680FC4044BD5
:108E60001D60044B01221A6030BC70475812020882
:108E7000681202086C120208F0B58DB00024079445
:108E8000089409940A940B948DF8164001268DF8E5
:108E90001760ADF814604025049503278DF818700D
:108EA0002246214604A80AF071FE8DF81E008DF8B6
:108EB0000A408DF80B40ADF8086001958DF80C70F4
:108EC0002A460A4901A80AF061FE8DF81F00084BE6
:108ED0000893084B1B68ADF82430074B0B9307A889
:108EE00009F06EFA054B18600DB0F0BD18120208BB
:108EF000100E0208101202085C94021014120208EC
:108F00002DE9F8435E4D00242C60DFF88091C9F80C
:108F100000405C4B1C6001272F605B4E4FF0050842
:108F200006F8048002232B60F75503232B600923E6
:108F3000B37004232B6086F80380C5F80080A1235A
:108F4000337106222A60777107222A60B3710823E1
:108F50002B60F4711820FFF7D1FED9F800300433EC
:108F6000C9F800302A68D3192B6006F80280DA1994
:108F70002A60F75423460EE041490C68621C0A60DF
:108F800041484FF0090C00F804C002340C6003F1B2
:108F9000300181540133072BEEDD394B1968481C31
:108FA0001860394A152757540231196000241454A7
:108FB000023018602625555402311960FF251554DA
:108FC000023018607F255554023119604FF0950E1C
:108FD00002F800E00230186008255554023119608B
:108FE00075261654023018604FF0100C02F801C0BC
:108FF000023119608125155402301860022555543C
:10900000DFF88880D8F800106144C8F80010411CCF
:1090100019604FF0090802F80080023018605454BB
:109020000231196016540230186001265654811915
:10903000196002F800E08819186002F801C081196F
:10904000196017548819186054548119196025241F
:1090500014548819186056548119196091241454B5
:10906000881918605554074C2168294421608119DA
:109070001960C0241454881918605454BDE8F8834A
:109080001012020874160208100E02087016020868
:109090002DE9F04104460D461646DDF81880D8F853
:1090A00000201F4801688A422FD31F460AF018FC8F
:1090B00010F0020F2CD00A234022394619480068CC
:1090C00009F0BAFA164B1B68834223D03246294670
:1090D0002046FFF78FFED8B9124B186809F018FA2E
:1090E000B0B9324629462046FFF7A4FE4FF0FF33C1
:1090F0000D4A12680D490B48006809F0F9F932462B
:1091000029462046FFF7A2FE02E009480DF046FD81
:10911000BDE8F0810028D9DDC8F80000D6E700BF1F
:10912000741602081412020870160208701202085F
:109130006894021008B5FFF7E3FE09F0CFFFFFF7D0
:109140009BFE03480BF0C8F80AF024F8012008BD84
:10915000D494021030B4064C064D0FCD0FC495E8E0
:109160000F0084E80F00044B00221A6030BC7047E7
:10917000F0170208D0170208D816020838B50546BD
:10918000002409E0E31D0CE0104B1B68986901F016
:10919000070104F0CFFE01340F2C15DC2346002C10
:1091A000F0DBDB10EA5C04F007031A41084B13F80C
:1091B000241002F00102CB087729E5D803480068A3
:1091C000806900EBC310E2E738BD00BF481B02080E
:1091D000589602100000000070B5064615462C4B4C
:1091E0001B680BB100241FE00121294B1960294A9B
:1091F000294800F0F9FFF5E7284B53F824000CF05C
:1092000013FB1FA3D3E900230CF0A2FC1EA3D3E998
:1092100000230CF073FB0022214B0CF0B7F90CF08B
:109220007FFD26F814000134052CE5DD41F22543CD
:10923000B38147F23403F38100242C6004E0194B1E
:109240001B6898690DE00134172C16DC164B13F8D7
:109250002410CB087729F2D8124A1268906900EBE3
:10926000C31001F0070104F05DFE0028EBD10121DD
:10927000A1402B680B432B60E5E770BDAFF3008086
:109280000000000080842E41666666666699B940DB
:10929000D8160208D0170208DC160208F0170208D8
:1092A0000000D040481B0208F895021030B583B08A
:1092B00000225021314801F01DF9A0B90024052CED
:1092C0001DDC04EB44002E4B0093FF232D4A12F8C3
:1092D00024202A492C4D05EB800000F09FFE024619
:1092E00038B90134EBE7014628480DF057FC00205F
:1092F0002AE0214626480DF051FC002024E01F4CB6
:10930000244A2549204600F07CFF01230322022144
:10931000204600F085FF2022002120480DF0A4FD0A
:109320000024172C12DC0023032219461C4810F8D5
:10933000240002F031F9024608B90134F1E7214670
:1093400018480DF02BFC002003B030BD00240F2C7A
:1093500011DC00231A460121134810F8240002F002
:109360001BF9024608B90134F1E721460F480DF018
:1093700015FC0020E8E70120E6E700BFDC16020844
:10938000F0950210D095021078160208E4940210AD
:1093900014950210D017020855910110F017020819
:1093A000F8950210509502105896021090950210F0
:1093B00008B503460322A221084602F0D2FF00B1FD
:1093C00001BE024B04225A6108BD00BF00E100E06B
:1093D00008B503480AF074FA02480AF077FF08BD9E
:1093E000A4A70210B1930110014B04225A617047E7
:1093F00000E100E0044B0422C3F89420BFF34F8F38
:10940000BFF36F8F704700BF00E100E0012303E06E
:10941000013A03EB83035B00B1FBF3FCBCF1090FE2
:10942000F6D8012AF4DCB1FBF3F203FB121130325F
:10943000027001309C46054AA2FB0323DB08BCF105
:10944000090FF0D800230370704700BFCDCCCCCCFF
:1094500008B5014601480DF0A1FB08BD9896021021
:1094600030B587B000F014FA04460F4B83FB00239D
:10947000C517C5EBA3150022294601A8FFF7C6FFB3
:109480003A2300F8013B03224FF47A7101FB1541A6
:10949000FFF7BCFF202303700023437001A8FFF7F0
:1094A000D7FF07B030BD00BFD34D621010B50446E2
:1094B000024605494FF0004009F02CFD00F0B8F9D4
:1094C000002CFDD110BD00BF9C96021010B50446C3
:1094D00000F0AEF9FFF7C4FF2046FFF7B9FF0348DD
:1094E000FFF7B6FF00F090F910BD00BFA89602107C
:1094F00010B5044600F09CF9FFF7B2FF0548FFF7EE
:10950000A7FF2046FFF7A4FF0348FFF7A1FF00F0E5
:109510007BF910BDAC960210A896021008B504465F
:10952000054B1B689869072100F5D06004F016FD13
:10953000204602F011FFF3E7481B020800B58BB08C
:10954000FFF7B4FE30B918480DF08EFB4FF4FA70F7
:10955000FFF7E4FF15480DF087FBFFF7EBFD28B997
:1095600013480DF01BFB6420FFF7D8FF11480DF0E6
:109570007BFB05E005A8FFF701FE0A2002F0ECFEE8
:109580000323049303AA082106A8FFF725FE04ABD2
:10959000009305AB039A082106A8FFF779FD04990B
:1095A0000029E7D1E9E700BFC0960210E896021053
:1095B000149702103C97021000B587B02F4A136829
:1095C000ADF814301B0C8DF816305368ADF8103020
:1095D0001B0C8DF812309368ADF80C301B0C8DF815
:1095E0000E3000F07FF900F0A9F908F0CFFA00B1D1
:1095F00001BE05A802F01AF904A802F017F903A8A1
:1096000002F014F90123062219466F2001F0C4FF6D
:1096100000B101BE62B64FF4E1330093FF231A4656
:109620002821292008F00CF810BB15480DF0B6FAD7
:1096300000231A46012113480DF0B0FA12480DF02C
:1096400013FB002111480DF0A9FA01230222002189
:10965000042001F0A1FF0E4B1B680421986904F05F
:1096600061FC48B9FFF734FB002007B05DF804FB4C
:1096700040F6B830FFF752FFFFF760FFE0970210A7
:10968000649702107097021094970210C897021006
:10969000481B0208000000000230800803D001309F
:1096A0000238FCD100BF00BF7047EFF3108072B6E4
:1096B000704780F31088704770477047FFF7FCFFD2
:1096C00072B6144C144DAC4209DA21686268A36882
:1096D000043BA2BFC858D050FAE70C34F3E70F4957
:1096E0000F4A00209142BCBF41F8040BFAE70D4835
:1096F0000D490860BFF34F8F08F026F808F00AF80C
:10970000FFF7DBFF0DF024FCFFF756FF0DF044FCE4
:10971000FEE700000CB2021024B202101C0A02087C
:10972000802702080000020808ED00E0FEE7FEE7DF
:1097300000B504207146084202D0EFF3098002E030
:10974000EFF30880043007F007F9FEE7024A1368D8
:1097500001331360704700BF4C18020830B587B062
:10976000154B0FCB06AC04E90F000022FF21134874
:1097700003F036F908B107B030BD02A90F4803F075
:109780007FF90028F7D10E490C4803F095F800281E
:10979000F1D10A4C04F1080500220A49284602F0DA
:1097A0000DFF0122009203232946204602F046FFC6
:1097B000204603F03FF9DEE7EC9702101418020888
:1097C00040420F004D97011008B50023084A13606E
:1097D000084A1360FFF7C2FF00B101BE002303E097
:1097E000054A0021D1540133082BF9D908BD00BF27
:1097F000101802084C1802087418020808B502F084
:10980000ABFD00B101BE08BD08B5EFF3058343B958
:10981000064B1B6803B901BE044A1368013B136081
:1098200003B108BDFFF7E0FDFBE700BF1018020819
:1098300008B5EFF3058333B9054B1B6823B1044A20
:1098400013680133136008BDFFF7D4FDF7E700BFCD
:1098500010180208034B43F82010034B01221A543E
:10986000704700BF5018020874180208064B1B5CB2
:10987000002BFBD0044B00221A54044B53F8203029
:109880008B42F3D1704700BF7418020850180208C9
:10989000014B1868704700BF4C180208F8B5044621
:1098A0000D461646FFF7F4FF471902E085B1FFF7B2
:1098B000EFFFB8420DD8094B1B5D002BF6D0074BCC
:1098C00000221A55064B53F82430B342EED100E083
:1098D000781CB84294BF00200120F8BD741802081B
:1098E0005018020808B507F05FFE0B4B1B880B4AA7
:1098F0001278DB030A49A1FB0313C2F11102012014
:109900009040C0EB9310074BD3F8843113FA80F0EA
:1099100080B207F029FE08BD7E1802087D180208F3
:10992000D34D621000002640034AD2F8803123F064
:109930000103C2F8803170470000264008B5FFF7E8
:10994000F3FF024B00221A7008BD00BF8018020806
:109950009B2800D001BE00207047836E4BB990F861
:1099600055301BB3B0F85630C3F3080303B30122DC
:1099700000E001224168D1F81832DAB143F0010267
:1099800022EA030333F0F70C00D001BE03F0F70323
:10999000C1F81032D1F81032436832F0F70100D02C
:1099A00001BE02F0F702C3F8182270470122E1E776
:1099B0000022DFE723F00102E2E701460023184618
:1099C00001E00133DBB20F2B06D89A1C51F822209C
:1099D000002AF6D01846F4E77047000000F00700B0
:1099E000014B53F820007047609F021000F0070001
:1099F00019B1044B53F820007047034B53F8200073
:109A0000704700BFC09F0210809F021000F0070047
:109A100011B1034B185C7047024B53F8200070479C
:109A2000E09F0210A09F0210032809D8DFE800F091
:109A3000020B04064020704770207047602070477A
:109A400001BE40207047502070470000202816D8E3
:109A500000283CD001381F283BD8DFE800F0212146
:109A60003A243A3A3A283A3A3A3A3A3A3A2C3A3A8C
:109A70003A3A3A3A3A3A3A3A3A3A3A3A3A3080281C
:109A800021D0B0F5807F03D170230B700020704788
:109A9000402803D150230B70002070470E487047B8
:109AA00000200870704710230B700020704720239F
:109AB0000B700020704730230B700020704740234C
:109AC0000B700020704760230B7000207047024825
:109AD00070470148704700BF0001020410F0020FF8
:109AE00005D110F0080F04D04FF4C070704700206B
:109AF00070478020704700B101BE4120704708B513
:109B000012B2406805F016F908BD08B590F86C105F
:109B1000406805F039F808BD70B588B0EFF30580EE
:109B2000103800B2FFF714FF4A4B53F82040626828
:109B30000123C2F81032D2F8102284F8553094F87C
:109B40005630002B37D1A36E002B74D02046FFF780
:109B500034FF461CF6B294F86D30012B46D094F8D1
:109B60006420002A44D103B101BE636803F5C073C9
:109B700001930123ADF80830226E0392ADF8103046
:109B800020228DF812200596002206928DF81C30B6
:109B900004F1700501A9284600F070FF0346002873
:109BA0003BD0002B3ED003B101BE94F86C30002BAB
:109BB0003DD0012540E0606804F0F3FFC3E7236E69
:109BC0001860236E043323660135EDB2B54211D21D
:109BD0002946606805F044F894F86430002BEED014
:109BE000024629462046FFF78AFFE8E70025EDE711
:109BF0000025EBE7A36E013BA36623B9C4F8F03060
:109C00002366032518E094F86C300BB1012513E0AE
:109C10002046FFF77AFF01250EE0284600F054FFAA
:109C20000346BEE7284600F03CFF0346BBE720465C
:109C3000FFF76BFFBDE701252046FFF78EFE94F886
:109C40005710294003D0A36D0BB1E06D984708B0C1
:109C500070BD00BF8418020808B5437B012B09D0F2
:109C6000032B0CD083B1022B00D001BE002002F0E8
:109C700069FB0BE0836803B901BE806806E0002041
:109C800002F060FB400801E04FF4966008BD000060
:109C90002DE9F04182B004460D4688220021284675
:109CA0000DF0E2F863780C2B39D1636803F00A03F6
:109CB0000A2B39D08822002128460DF0D5F80A2336
:109CC000AB6001232B6685F87430607BFFF7ACFE38
:109CD00040F4604040F04000E37BF3B18023034355
:109CE000227B0AB14FF4606242EA03070DF10701DB
:109CF0006088FFF7ABFE064690B99DF8078048F0F4
:109D00000C086068FFF7EAFE48EA00002F60686010
:109D10002046FFF7A1FFA86702E00023DFE7034E1C
:109D2000304602B0BDE8F081004EF9E700010204C0
:109D300010B5044603684179586804F04AFF236867
:109D40005B681B6830B103F46063B3F5606F09D0E2
:109D5000002200E00022044B1B686179986A04F03D
:109D600083FF10BD014AF6E7481B020800F8FFFF19
:109D70002DE9F04188B004464C3000F01BFE8046CF
:109D800010B14B4BB3FBF0F8002306930793B8F1E7
:109D9000000F3DD09C46184627E007F120026A4498
:109DA00002F8183C01210133DBB2C1B9032B16D8EC
:109DB000B5689E4608AA02EB430232F8082C954289
:109DC000EBD0002AEFD108AA02EB430E2EF8085C74
:109DD00007F120026A4402F8183C0121E3E701B9C7
:109DE00034480CF1010C5FFA8CFCBCF10F0F10D859
:109DF00067460CF1020354F8236000220CF12003A3
:109E00006B4403F8182C002EEBD000231946CCE746
:109E10002948F8B108B0BDE8F0810223013308AD4C
:109E200005EB410121F8203C0132D2B2032A13D8BC
:109E3000114608AB03EB420333F8083C4344013BB3
:109E4000B3FBF8F3012BE8D9B3F5806FE6D340F20A
:109E5000FF33E3E70022E9E7BDF80030BDF8021068
:109E6000626843EA01431361BDF80430BDF806108F
:109E7000626843EA01435361002315E0656803F11A
:109E8000200255F8221021F4405145F8221065684F
:109E900055F822100DEB020616F8186C41EA06314F
:109EA00045F822100133DBB20F2BE7D9B2E700BF30
:109EB00000CA9A3B000102040101020410B40368C5
:109EC0005C68427902F1200354F8233003F07733C1
:109ED00023F07623497841B14FF480610B4320325F
:109EE00044F822305DF8044B70470021F6E770B566
:109EF0000546084616460121FFF788FD0446FF2E59
:109F000006D000213046FFF781FD044344F0807401
:109F10002B685A686B79203342F8234070BD38B5FE
:109F20000D460446C8B16B68A72B38BFA723A360B2
:109F300029462046FFF7C2FF2B7883B12368596872
:109F40000B6A60790122824013430B622046FFF7BF
:109F5000EFFE2068FFF70CFF38BD01BEE3E7236882
:109F600059680B6A60790122824023EA02030B627E
:109F7000ECE70268002A4FD0F8B504464379023373
:109F8000002142F8231005682B782BB90679FF2EA3
:109F90000FD1A579FF2D22D123685A686379203328
:109FA000002142F8231023681B7873B30023236039
:109FB000F8BD01213046FFF719FD07463046FFF78F
:109FC0000DFD064600233A461946686804F0E2FE95
:109FD000236800223146586804F0F0FED9E728468D
:109FE000FFF7FCFC064600212846FFF7FFFC02466F
:109FF000256800231946686804F0CCFE2368002217
:10A000003146586804F0DAFEC6E7201D03F0EDF98A
:10A01000A01D03F0EAF9C9E7704700002DE9F04BF5
:10A0200082B00E4690461F46044658B366B30023DE
:10A0300023606360A360FF222271A2710093082253
:10A040005849404603F07EF9814698B396F8492076
:10A0500003789A421AD04FF0000C534D65B9266030
:10A0600084F805C00CF1020C46F82C400A9B5B6892
:10A07000A72B38BFA723A36095BBFF2F20D14FF09C
:10A08000000B2FE001BED1E701BED0E74FF0000C7E
:10A09000BCF10F0F09D80CF1020356F8233023B19D
:10A0A0000CF1010C5FFA8CFCF2E7BCF10F0F05D844
:10A0B0000025D3E74FF0000C3B4DCFE73B4DDBE7EE
:10A0C0000023009308223749384603F03BF98346C2
:10A0D000E0B196F8492003789A4203D0324D02E06D
:10A0E0004FF0000B65B11DB984F80480FF2F0FD12C
:10A0F000A5B1CDB1002D51D1284602B0BDE8F08BFD
:10A100000021484603F07CF90546ECE7264DEAE7D6
:10A110000021584603F074F90546E9E7A771206865
:10A12000FFF726FE0546E4E701214046FFF75EFC07
:10A1300081464046FFF752FC0646206801234A4606
:10A140000021406804F026FE236801223146586849
:10A1500004F034FEFF2F0AD1A27921792046FFF7BF
:10A16000C6FE0A992046FFF7DAFE0546C2E700213F
:10A170003846FFF73BFC80463846FFF72FFC064683
:10A180002068012342460021406804F003FE236852
:10A1900001223146586804F011FEDDE72046FFF742
:10A1A000E8FEA9E7FC970210000102040301020483
:10A1B000F8B504460F461546036E03B101BEFFF71E
:10A1C00074FA0646A766C4F8F05025662046FFF7E5
:10A1D000C4FB94F86C301BB13046FFF76AFAF8BD47
:10A1E0002046FFF792FCF7E708B5034638B1012097
:10A1F00083F864001846FFF7DBFF002008BD01BEAE
:10A20000F5E770B50D461446064630B1FFF74DFA36
:10A21000B565F465FFF74DFA70BD01BEF6E70000C5
:10A2200010B5144663B190F85730194380F85710B1
:10A23000FFF793FB6401E4B2054B83F89B4310BD29
:10A24000C94349B290F857300B4080F85730EFE7D8
:10A2500000E100E00AB10948704738B504460D46F0
:10A260000021406804F0A6FC94F84900FFF743FC85
:10A270000146284601F0EAFC38BD00BF0001020497
:10A2800031B94268536823F080435360002070471F
:10A290000048704700010204002850D010B5044661
:10A2A00043684BB3264B4FF00062C3F89020BFF3D6
:10A2B0004F8FBFF36F8F90F849200021214B43F857
:10A2C0002210FFF7DDFF00B101BEB4F8EC10A1B918
:10A2D00000224FF48031606804F070FD00234FF4D9
:10A2E00080321946606804F055FD606804F059FC3E
:10A2F000237853B10023636010BD00222046FFF78E
:10A30000A9FF0028E4D001BEE2E7606804F010FC79
:10A3100094F8543033B900F02BF904F1480001F0FF
:10A3200085FAE7E794F84C0094F84D1000F003002C
:10A3300005F03EFB04F14C0000F087FBEBE77047B3
:10A3400000E100E084180208F8B50E4617461D46E5
:10A350000446002857D0F422002120460CF084FD4A
:10A360001E2384F84830012384F86D30257033684B
:10A37000002B4AD0002B6CD01A889B78A4F8482078
:10A3800084F84A30524B6360B268002A4FD004F11F
:10A390004C0392E8030083E80300002584F854503E
:10A3A0003420002D5AD01DB994F85430002B61D1BF
:10A3B000002D00F08380002D40F0868001224FF4B4
:10A3C0008031606804F0FAFC01234FF480320021F0
:10A3D000606804F0DFFC00F0A9F82046FFF7BDFA42
:10A3E00094F849203B4B43F822403B4A03219B20F1
:10A3F00001F086FC394B4FF000621A61606804F08E
:10A400006BFB2846F8BD01BEA5E7FF2FB2D008239D
:10A41000334A0021384602F0C2FFB8B1002384F865
:10A420004830027884F8492084F84A30AAE70123AA
:10A430001A4604F1480104F14C0003F0A1F8054666
:10A4400050B9012384F854303420AAE70020254D68
:10A45000A7E70020234DA4E73420A2E794F84C108E
:10A4600094F84D2001F0030105F024FA00289AD059
:10A470001D4D9DE706F066F91C4AA2FB0032520D05
:10A480001B4B984201D2184D95E794F84C00013AC5
:10A4900094F84D1000F0030005F0FCF808B1124DDF
:10A4A00089E794F84C0094F84D1000F0030005F093
:10A4B0003DFA00283FF47CAF0B4D7CE77168606883
:10A4C00004F008F9054676E72046FFF7E5FE98E731
:10A4D00000009D4084180208199B011000E100E073
:10A4E000FC970210000102040101020483DE1B43F9
:10A4F00000127A0070B5A8B006460C46154606A9AB
:10A500000948FFF7C5FB08B128B070BD03460190AC
:10A5100006AA029203958DF81000224601A9304642
:10A52000FFF712FFF0E700BF4C9F021010B5FFF7D6
:10A53000BCF804460B4B1B883BB10A4A1388013315
:10A5400013802046FFF7B5F810BD074805F06EF8F8
:10A55000064B1B68DA69D2F8003E43F00043C2F8AC
:10A56000003EEAE78818020840A30210481B0208D0
:10A5700008B5FFF79AF80D4B1B8803B901BE0B4ACB
:10A580001388013B9BB2138063B9094B1A68D169E8
:10A59000D1F8003E23F00043C1F8003ED369002209
:10A5A000C3F8002EFFF785F808BD00BF8818020821
:10A5B000481B020801BE0148704700BF02020204A6
:10A5C000024B0B600923136000207047240302082C
:10A5D00008B5407806F0A6F808BD000038B5054675
:10A5E00014468A4294BF00230123834209D080F09D
:10A5F00001038A422CBF002101218B4201D04DB1C1
:10A6000038BD06F0ADFC054BA3FB0431890C06F008
:10A61000F5F9F4E707F042F8F2E700BF83DE1B43E9
:10A620002DE9F04104460A78A2F10D03DBB2012BBB
:10A6300004D90F2A2FD14E78013600E04E78002041
:10A6400005F036FB0746002005F000FB06F04AF84F
:10A6500020FA07F8304606F045F820FA07F7637845
:10A660006BB1F1B2607805F0D1FA054663789BB919
:10A6700058B93A4641460020FFF7B0FF0CE03A4691
:10A6800041460120FFF7AAFFEBE74246394600208A
:10A69000FFF7A4FF00E0024D2846BDE8F08100BFAF
:10A6A00001020204F8B505460139072935D8DFE86B
:10A6B00001F00426340634343424002600E0022657
:10A6C000002005F0F5FA0746002005F0BFFA06F075
:10A6D00009F820FA07F720FA06F46B788BB13146B7
:10A6E000687805F0C5FA06466B78BBB978B922469A
:10A6F00039460020FFF772FF10E00326E0E701264D
:10A70000DEE7224639460120FFF768FFE7E73A46D1
:10A7100021460020FFF762FF00E0014E3046F8BD01
:10A720000002020408B519B1407805F029FA08BD05
:10A73000407805F04FFAFAE708B5407805F038FAA6
:10A7400008BD00002DE9F84304460E461546DDF825
:10A750002080DDF8249001279F404FEA520C1CEB2B
:10A7600000004FF0000341F100010BF051FBC9F86C
:10A770000000B84201D9C9F80070B8F1000F1AD032
:10A7800098F80070D9F800200023204631460BF0DD
:10A790003FFB02462946384602F0A6FE0028B8BF15
:10A7A0004042B8F1000F08D0D8F80430834206D3F5
:10A7B0000020BDE8F8830020F3E70020F9E7014816
:10A7C000F7E700BF0002020408B590F800C01CF0D3
:10A7D000020F06D14A1E41780CF0030004F05AFF24
:10A7E00008BD00234A1E41780CF0030004F0B6FFB8
:10A7F000F6E770B584B004460D46164605F0A2FF94
:10A800000146237813F0020F0ED013F0010F24D06D
:10A810001D2303AA019200962A464801C90EFFF79C
:10A8200091FFE0B104B070BD13F0010F13D01023FD
:10A8300003AA019200962A4608460021FFF782FFEC
:10A840000028EFD12078039A013A617800F00300E4
:10A8500004F020FFE6E70823EAE71523D9E7039B86
:10A860005A09207803F01F03013A617800F00300D1
:10A8700004F074FFD6E708B50378417803F00300CD
:10A8800005F079FF08BD08B531B10378417803F0D0
:10A89000030005F04BF808BD0378417803F003008E
:10A8A00005F086F8F7E708B50378417803F0030070
:10A8B00005F0B0F808BD00000048704738A002104D
:10A8C0002DE9F04182B007460D469046084602F059
:10A8D00039FEC6B2002401E00134E4B2B44213D21E
:10A8E00005238DF804308DF805508DF8064001A839
:10A8F00000F058FF03460028EED13D707C70012225
:10A90000BA70C7F8048000E0024B184602B0BDE8F8
:10A91000F08100BF020E020430B583B00C4605463C
:10A9200078B184B105238DF8043023788DF8053093
:10A9300063788DF8063001A800F034FF28B103B029
:10A9400030BD01BEEDE701BEECE7226863682A6016
:10A950006B600123AB70F2E708B5034648B11A7883
:10A96000122A08D0032A0AD95A6812681846904752
:10A9700008BD01BEF3E71846FFF7DEFEF8E718460C
:10A98000FFF791FFF4E710B5034648B11878122895
:10A9900008D003280AD9586844681846A04710BD53
:10A9A00001BEF3E71846FFF7BDFEF8E71846FFF7CC
:10A9B0006AFFF4E710B5044668B12046FFF7CCFF04
:10A9C00098B12378122B08D0032B0AD963689B68AF
:10A9D000204698470AE001BEEFE72046FFF7F8FD62
:10A9E00004E02046FFF747FF00E0002010BD10B54F
:10A9F000034648B11878122808D003280AD95868A5
:10AA0000C4681846A04710BD01BEF3E71846FFF71B
:10AA1000D1FDF8E71846FFF7ECFEF4E708B503466A
:10AA200048B11A78122A08D0032A0AD95A6812693A
:10AA30001846904708BD01BEF3E71846FFF732FEFF
:10AA4000F8E71846FFF7C0FEF4E710B582B00446F9
:10AA500090B1A37803B901BE05238DF804302378A3
:10AA60008DF8053063788DF8063001A800F0DEFE21
:10AA70000023A37002B010BD01BEEAE708B503468B
:10AA800048B11A78082A08D0092A00D001BE184611
:10AA900000F0C0FB08BD01BEF3E7184600F016F950
:10AAA000F8E708B5034648B11A78082A08D0092AF9
:10AAB00000D001BE184600F053FC08BD01BEF3E70C
:10AAC000184600F0A3F9F8E708B5034648B11A782C
:10AAD000082A08D0092A00D001BE184600F050FB11
:10AAE00008BD01BEF3E7184600F0D2F8F8E7000011
:10AAF00038B5EFF30583103BDBB2343BDBB2032BFD
:10AB000000D901BE032B1BD80022032B00D901BEA4
:10AB1000032B01D901BEFF231C4603EB820224490B
:10AB200051F82250032B00D901BE230203F18043C8
:10AB300003F5281341F28C0298580023194604E0CB
:10AB400001BEFF22E1E70133DBB250B1072B08D889
:10AB500001229A401042F6D0164A32F813201143CF
:10AB6000F1E711F0010F0FD0B5F8643063B1013B8C
:10AB70009BB2A5F864303BB941F002016B7D012B1B
:10AB800013D00123A5F86430EB6E19402B6F1BB175
:10AB900011B189B2686F9847032C00D901BE240215
:10ABA000054BFF221A511B5938BDAB8FEAE700BF96
:10ABB0008C18020878A0021080102A4070B5044654
:10ABC00000F11401443002F04FFF00284ED1221D45
:10ABD000A178294802F0E4FE002849D1A378032B8C
:10ABE00000D901BE244A02EB032341F28801FF2071
:10ABF0005850136843F000431360A378032B00D927
:10AC000001BE1B021D4AD35813F0180F19D16078EA
:10AC10008000C0B2A3781844C0B200F134063546B3
:10AC2000E36ED3B90321164A284601F069F808BB40
:10AC300006F01F066D090123B340124A42F8253081
:10AC400015E0A378032B00D901BE1A020B4B134465
:10AC5000FF221A601B680C4809E006F1604303F507
:10AC6000614393F800134909C9B2DCE7074870BD96
:10AC70000648FCE70548FAE700002A4080102A4011
:10AC8000F1AA011000E100E003060204010602043B
:10AC90008378032B00D901BE044910331B02CA5824
:10ACA00042F00042CA500020704700BF00002A4016
:10ACB000054B9B68DBB2817801228A401A4214BF9F
:10ACC00001200020704700BF00002A4038B504462C
:10ACD0000D46FFF7EDFF002840F085806B69B3F566
:10ACE000803F00F28280012B12D91BB12A69B2EB9E
:10ACF000034F7CD82B682362AB686362AB7B082B65
:10AD00000CD0102B40D0202B73D10223A37607E068
:10AD10002A69B2F5803FE8D9384857E00023A37686
:10AD200000232377E376A36E022B30D0012B31D0A2
:10AD300004F1440323642B7E012B2DD90123E375F9
:10AD4000B5F90430A362B5F90C30E3626B6933B333
:10AD50002A69B2FBF3F103FB1122002A4BD1022333
:10AD600063776A6922632B69B3FBF2F3E363B5F996
:10AD700004306A6902FB03F36363B5F90C306A6956
:10AD800002FB03F3A3630EE00123A376C8E70123CC
:10AD9000E376CDE72377CBE70023E375D0E7012304
:10ADA00063772B6923636B691BB12B7E7BB1022B0D
:10ADB0000DD00123A4F8643002236375B4F8783011
:10ADC0000BB9022323762046FFF7F8FE38BDE36B6C
:10ADD000A4F8643001236375B4F87830002BF2D105
:10ADE00001232376EFE70648F0E70448EEE703483F
:10ADF000ECE70448EAE70448E8E700BF0806030474
:10AE000005060204000602040406020410B5044606
:10AE1000FFF74EFF20BB144B1B781BBB6278A37857
:10AE20009200D2B21344DBB20233DBB20F4AD15CE0
:10AE3000D256002A0DDB0E4AD05C40EA01200221E6
:10AE400040F0804006F020FB0A4B984206D00020DC
:10AE500010BD02F06F0242F01001ECE70648F7E780
:10AE60000548F5E70548F3E79C18020844990210E5
:10AE7000BC9E02100200CE0006060104031A020462
:10AE800038B5EFF305839BB2A3F1100292B2A3F1A0
:10AE9000480189B21C2907D9A3F1650080B21C289A
:10AEA0000CD901BEFF2000E000201C2908D9653B19
:10AEB0009BB21C2B6FD901BEFF2303E00120F4E7F6
:10AEC000383AD3B2C0EBC00200EB82021D461344F5
:10AED0003E4A52F82320002860D13D4C3C4B9C4216
:10AEE0005ED03C4B1B6893F836309D4234BF002344
:10AEF000012303B101BE374B1968B1F85E3023441A
:10AF0000B1F8601001FB05335B6803F00F03082BF9
:10AF100000D901BE082B4CD82F4931F8131011F07D
:10AF2000010F0FD0B2F8643063B1013B9BB2A2F8BD
:10AF300064303BB941F00201537D012B3BD001232A
:10AF4000A2F86430D36E1940136F1BB111B189B2EE
:10AF5000506F98471E4B9C422FD01E4B1B6893F896
:10AF600036309D4234BF0023012303B101BE194B8B
:10AF70001A68B2F85E302344B2F8601001FB053362
:10AF800001211961B2F85E301C44B2F8603003FB55
:10AF90000544236938BD553AD3B293E70F4C9DE77A
:10AFA0000C4B1B6893F835309D4234BF00230123BE
:10AFB0009FE70021B3E7938FC2E7064B1B6893F826
:10AFC00035309D4234BF00230123CEE7A01802088C
:10AFD00000002840481B020888A0021000002940F9
:10AFE00038B5044600F11401443002F049FB002852
:10AFF00040F0B1806378002B5DD15A4D221DA178BD
:10B00000284602F03FFC002840F0A780A278554B6C
:10B010009D4252D0544B1B6893F836309A4234BF4D
:10B020000023012303B101BE4F4B1968B1F85E3014
:10B030002B44B1F8601001FB023301229A612B68A6
:10B0400043F000432B60A278464B9D423ED0464BD6
:10B050001B6893F836309A4234BF0023012303B1B2
:10B0600001BE414B1968B1F85E302B44B1F8601055
:10B0700001FB02331B69043B012B30D9637813B900
:10B08000A5781C2D57D9012B57D001BE40F2FF35B2
:10B09000E36E002B56D10321344A284600F030FEDF
:10B0A00000285CD105F01F026D0901239340304A4E
:10B0B00042F8253052E02F4DA0E72B4B1B6893F848
:10B0C00035309A4234BF00230123ABE7264B1B687F
:10B0D00093F835309A4234BF00230123BFE7A178AB
:10B0E000204B9D421ED0204B1B6893F8363099426E
:10B0F00034BF0023012303B101BE1B4B1A68B2F811
:10B100005E302B44B2F8600000FB0133012018616F
:10B11000B2F85E301D44B2F8603003FB01552B6974
:10B1200015481BE0104B1B6893F83530994234BF2B
:10B1300000230123DFE73835AAE7A5781C2DA4D822
:10B140005535A5E705F1604303F5614393F8001316
:10B150004909C9B2A0E7094800E0084838BD0748D6
:10B16000FCE700BF00002840481B020881AE011028
:10B1700000E100E000002940030602040106020489
:10B180004378EBB9144A837813498A421AD0134999
:10B19000096891F836108B4234BF0021012101B1BA
:10B1A00001BE0E490968B1F85E00B1F860100244B2
:10B1B00001FB03F3D15841F00041D150002070470A
:10B1C000074AE0E70549096891F835108B4234BF1A
:10B1D00000210121E3E700BF00002840481B0208CE
:10B1E0000000294043786BB9074B084A1268B2F84F
:10B1F0005E100B448178B2F8602002FB013358687E
:10B20000C00F7047024BF0E700002840481B0208BF
:10B210000000294038B504460D46FFF7E3FF00283B
:10B2200040F08C806B69B3F5807F00F28980012B40
:10B230001BD923B12A69B2EB032F00F283802B685C
:10B240002362AB68636204F1440323642B7E012B09
:10B2500011D90123E375AB7B082B0FD0102B50D0F5
:10B26000202B71D1022363760AE02A69B2F5807F30
:10B27000DFD9374844E00023E375ECE70023637629
:10B280000023E376A376A36E022B3DD0012B3ED0A4
:10B290006B6933B12A69B2FBF3F103FB1122002A77
:10B2A00054D1B5F90430A362B5F90C30E3626B698F
:10B2B0007BB3022323776A6922632B69B3FBF2F322
:10B2C000E363B5F904306A6902FB03F36363B5F91C
:10B2D0000C306A6902FB03F3A3636B691BB12B7E1D
:10B2E00003B3022B1ED00123A4F86430022363753C
:10B2F000B4F878300BB9022323762046FFF770FEAE
:10B3000038BD01236376BBE70123A376C0E7E3766C
:10B31000BEE7012323772A692263E3630023636383
:10B32000A363DAE7E36BA4F8643001236375B4F830
:10B330007830002BE1D101232376DEE70548DFE7F3
:10B340000348DDE70248DBE70348D9E70348D7E7CE
:10B3500008060304050602040006020404060204AB
:10B3600010B50446FFF73EFF38BB164B1B7833BBC6
:10B370006378A278C3EBC30103EB810352FA83F332
:10B38000DBB20633DBB2104AD15CD256002A0DDBA9
:10B390000E4AD05C40EA0120022140F0804006F0D5
:10B3A00073F80B4B984206D0002010BD02F06F02DC
:10B3B00042F01001ECE70748F7E70648F5E70648D2
:10B3C000F3E700BF8819020844990210BC9E0210DE
:10B3D0000200CE0006060104031A020408B5022981
:10B3E0000FD008290DD0012901D0012008BD084B3C
:10B3F00001221A7002F004FD40B10020044B1870C5
:10B40000F4E7034B00221A700120EFE70120EDE77B
:10B410008C19020838B5044608460D490978A1B9C7
:10B420001D4602F17843B3F5801F07D21146A047AD
:10B430000446084B984202D1002400E0064C0DB9A6
:10B44000204638BD05F054FAFAE7044CF8E700BF8F
:10B450008C1902080100500000080204031A0204BB
:10B4600008B540B1074B1B883BB1064A138801332E
:10B470001380002008BD01BEF4E7034800F0F8FE89
:10B48000F3E700BF8A1902084803020810B580B12B
:10B49000144B1B781BBBB1F1A05F02D3124B994236
:10B4A00009D3B1F1805F08D3B1F1815F09D30023E3
:10B4B00004E001BEECE7012300E000231BB90B4CC4
:10B4C0000EE00123FAE7084602F026FC0446084B8A
:10B4D000984202D005F00CFA02E00024FAE7054C8D
:10B4E000204610BD8C1902080080001400080204D8
:10B4F00001005000031A020408B568B1B1F1A05F61
:10B5000002D30D4B994209D3B1F1805F08D3B1F159
:10B51000815F09D3002304E001BEEFE7012300E0CF
:10B5200000231BB9054808BD0123FAE7012304489D
:10B53000FFF770FFF7E700BF008000140008020467
:10B5400089DD011008281CD8DFE800F00923051E5A
:10B550000B0D0F1113000A20012917D07047082086
:10B5600070470C20F8E70D20F6E70E20F4E70F20D7
:10B57000F2E74B1EDBB2012B01D90820ECE70E20CD
:10B58000EAE701BE0820E7E70B20E5E700F0070047
:10B5900070470020E2E700002DE9F04387B00F4636
:10B5A00016461D462F4B1B78FBB94FF0000C07E0E9
:10B5B0002D4C002344F82C300CF1010C5FFA8CFC6C
:10B5C000BCF10E0FF4D94FF0000C08E0264B03EB52
:10B5D0004C0300229A870CF1010C5FFA8CFCBCF141
:10B5E000050FF3D91F4B01221A700B238DF8083079
:10B5F000C4088DF8094000F007088DF80A80029B06
:10B60000ADF814301B0C8DF81630059BADF81030DA
:10B610001B0C8DF81230049BADF80C301B0C8DF810
:10B620000E3003A800F0BEF8814618B1484607B0B6
:10B63000BDE8F08339463046FFF784FF02460E2C02
:10B640000BD80A4B1B68986900EBC41000230093C9
:10B650002B46414602F00EFCE8E7044B1B68986954
:10B66000F4E700BF8D19020838090208481B0208D8
:10B6700070B504280DD00D46114602463C4C34F8F6
:10B6800010E0441C1D2C07D8E4B2394E36F81440A3
:10B6900004E00D250520F0E740F231144FF0010CD5
:10B6A0000CFA02FC334A0CEA02023AB9AE44A3F89F
:10B6B00000E01B88A34258D2002070BDC21E182A89
:10B6C00032D8DFE802F00D313431310F2531293124
:10B6D000313131312B312D3131313131312F2700A1
:10B6E000254A00E0254A1C80002AE2D003381828A9
:10B6F00036D8DFE800F01E353835351E2F353135A8
:10B70000353535351E351E353535353535331E0065
:10B710001B4AE8E71B4AE6E71B4AE4E71B4AE2E765
:10B720001B4AE0E71B4ADEE701BE0022DBE71A4ABC
:10B73000D9E70126B542BCD232F81500704411FA9F
:10B7400080F11980691CB142B3DA32F811407444B7
:10B75000A4B2AEE70226EDE71026EBE70226E9E702
:10B7600001BE0026E6E71A26E4E70C48A5E700BF7D
:10B770000CA10210280B0A0C9CA00210D4A00210ED
:10B78000D8A0021008A10210DCA00210FCA0021038
:10B7900000A1021004A10210A0A00210000E0204D9
:10B7A00000207047F0B583B004460027FDF77DFF09
:10B7B00006460DF10603A27861782078FFF758FF5E
:10B7C000054668B9BDF80630C3F3C70203F00703A6
:10B7D0001449895C012202FA03F3194218BF174683
:10B7E00005B9EFB92DB13046FDF763FF284603B028
:10B7F000F0BD0DF10603A27861782078FFF738FFDD
:10B8000005460028EFD1BDF80630C3F3C70103F0A9
:10B810000703044801229A40435C13434354E2E780
:10B82000014DE0E790190208010E020430B583B023
:10B830000446FDF73AFF05460DF10603A27861784C
:10B840002078FFF715FF014668B9BDF80630C3F34D
:10B85000C70003F00702074C01239340DB435BB2B0
:10B86000225C1340235401B101BE2846FDF721FF9D
:10B8700003B030BD901902082DE9F04F85B0804625
:10B880000F46924601935D4B33F81020431C1D2B4D
:10B8900012D8DBB2594931F81390012303FA08F3A7
:10B8A000DFF884B103EA0B0BA9EB02091FFA89F94F
:10B8B00000252E462C4617E040F23119EDE7012312
:10B8C000BAF1000F08D031462046019B98479AF8FC
:10B8D000001000F0C0F90346BBB9BBF1000F26D140
:10B8E0000134E4B20135ADB24D4580F08180002FC6
:10B8F000E5D0314620460E9B98470146388800F037
:10B90000AAF903460028E7D0DAE78DF80C808DF815
:10B910000D408DF80E6003A8FFF744FF0346002892
:10B92000DBD10F9A82F800805470967061E0A8F124
:10B930000303182B30D8DFE803F00D2F322F2F0F21
:10B94000232F272F2F2F2F2F292F2B2F2F2F2F2F25
:10B950002F2D25002A4A00E02A4AA8F10303182BBC
:10B9600032D8DFE803F01E313431311E2B312D3156
:10B97000313131311E311E3131313131312F1E0023
:10B98000214AEAE7214AE8E7214AE6E7214AE4E7D3
:10B99000214AE2E7214AE0E701BE0022DDE7204A32
:10B9A000DBE70121631C08468B4204DA32F81310EE
:10B9B0006B1C99420DDD0136F6B293E70221F1E7E7
:10B9C0001021EFE70221EDE701BE0021EAE71A218D
:10B9D000E8E70134E4B2631C984207DD32F8131043
:10B9E00032F814309942F4D000267BE7002679E73C
:10B9F0000C4B184605B0BDE8F08F00BF0CA102103B
:10BA00009CA00210D4A00210D8A0021008A102101D
:10BA1000DCA00210FCA0021000A1021004A1021080
:10BA2000A0A00210020E0204280B0A0C00B583B07D
:10BA30000191002100910B460A46FFF71DFF03B05C
:10BA40005DF804FB02460023184603B1704702B1BB
:10BA500018460133DBB2F8E710B50446FFF7F2FFF2
:10BA6000204610BD002001E00130C0B2102805D8EA
:10BA7000044B1B5C002BF7D040B270474FF0FF30F7
:10BA8000704700BFB099021038B504460D46FFF765
:10BA9000E9FF114B1B5D83B1104B1A689368B2F834
:10BAA00070100B44201A1030B2F8722002FB00F024
:10BAB00000EB8501C858C0B238BD084B1A689368BE
:10BAC000B2F870100B44B2F8722002FB04F404EBDD
:10BAD0008501C858EFE700BFB0990210481B020863
:10BAE0002DE9F84304461E469DF820809DF82470F9
:10BAF000224B1B5CC3B1411ACCB22046FFF7ACFF0E
:10BB000046EA00262046FFF79DFF46EA004040F047
:10BB1000804040F4805027B14246002105F026FCC9
:10BB200023E005F071FC20E01546FFF795FF4FEA92
:10BB3000002945EA00252046FFF784FF45EA004535
:10BB400049EA060949EA004949F080417FB90C4BAE
:10BB500019688B68B1F870201A44B1F8723003FB91
:10BB600004F404EB860300209850BDE8F8834346B4
:10BB70000022284605F09EFBF7E700BFB0990210AF
:10BB8000481B02082DE9F04782B00C469046C0F3EE
:10BB9000470600F00107FFF765FF8146244B1D5D56
:10BBA0001B57002B04DB234B13F804A0002416E0E2
:10BBB00005F07F0555FA80F5EDB2F4E7B8F1010F15
:10BBC00014BF00230123019300975346E2B25FFAAA
:10BBD00089F12846FFF784FF22E00134A4B22A4607
:10BBE000154B33F81530A34219D9144B53F82530AF
:10BBF0001B5DB342F1D1124B9B5C1BB11FFA8AF360
:10BC0000A34210D1B8F1020F04D051462846FFF7E5
:10BC10003BFF50B9B8F1000FD0D1002000E0094837
:10BC200002B0BDE8F0870748FAE70748F8E700BF29
:10BC300044990210BC9E0210289F0210E0020208E4
:10BC4000B0990210010D0204000D020408B5022291
:10BC5000FFF798FF08BD08B50022FFF793FFB0FA81
:10BC600080F0400908BD000070B582B00D468378B1
:10BC7000772B16D8DA08134909688E6906EBC216C5
:10BC8000C27803F00704009201232A462146304679
:10BC900002F0F0F80A2D08D00B2D0CD0002002B0D5
:10BCA00070BD084A12689669EAE7012221463046CB
:10BCB00002F040F9F2E700222146304602F03AF95C
:10BCC000ECE700BF481B020810B582B00146772898
:10BCD00010D8C308094A1268906900EBC310002409
:10BCE00000940123082201F0070102F0C3F8204666
:10BCF00002B010BD014B1B689869F0E7481B0208B1
:10BD000000B583B0ADF8000001911146684604F01B
:10BD100095FD03B05DF804FB38B50346084850F8BC
:10BD20002340084850F8235044B12DB10023184651
:10BD30000BB92046A84738BD0123F8E70123F6E7F1
:10BD4000EC190208B81902082DE9F04105468846A9
:10BD5000084601F0B1FB06460024012718E0022244
:10BD600029463046FFF7D8FF0136F6B2B442F6D87E
:10BD7000B8F1020F1BD0B8F1080F18D0B8F1010FBD
:10BD800018D1BFB10D4B01221A7013E00134E4B297
:10BD90000C2CEDD8324629462046FFF7BDFF07465A
:10BDA0000028F3D1B8F1010FF0D10026DEE7034BF4
:10BDB00000221A703846BDE8F08100BFB7190208AA
:10BDC000024600200C2806D8044B1B5C934203D08B
:10BDD0000130C0B2F6E7FF20704700BF80A102101B
:10BDE00008B5123820282CD8DFE800F0212B2B2BA7
:10BDF0002B2B2B2B2B2B2B2B2B2B2B2B2B2B2B2B93
:10BE00002B112E1317191B1D1F2325272900002076
:10BE100000E00220FFF7D4FF08BD0320FAE704206A
:10BE2000F8E70520F6E70620F4E70720F2E7082008
:10BE3000F0E70920EEE70A20ECE70B20EAE70C2008
:10BE4000E8E701BEFF20E5E70120E3E708B5EFF3EF
:10BE50000580103800B240F2FF33984205D0FFF75A
:10BE6000BFFF034B53F8200008BD0020FCE700BFD4
:10BE7000EC1902082DE9F04383B080460E461746C0
:10BE80009946002416E099F802206B789A4201D076
:10BE9000002325E0012323E017238DF80430735C91
:10BEA0008DF805306B788DF8063001A8FFF77AFC25
:10BEB000C8B10134BC421AD2A10006EB840595F842
:10BEC00002C0C445F5D1B9F1000FE5D099F80030B2
:10BED000172BE1D199F80120735C9A42D3D000234B
:10BEE000002BE6D004E001A8FFF7A0FC00E000254D
:10BEF000284603B0BDE8F0832DE9F04383B0074640
:10BF00000D4616460024A14600E00134B44220D27A
:10BF10004FEA840805EB840393F802C0BC45F4D1D2
:10BF200017228DF8042015F824208DF805205B7861
:10BF30008DF8063001A8FFF735FC0028E5D101A8EF
:10BF4000FFF774FC15F808200123934049EA030920
:10BF5000DBE7484603B0BDE8F0830000014B1878EA
:10BF6000704700BFB719020838B50C461546FFF7F1
:10BF700027FF124B43F82040114B43F82050002379
:10BF80001A4601E00133DBB20C2B08D80B4850F8FD
:10BF900023000028F6D0012A07D00132F2E72AB99F
:10BFA00004B101BE074800F06FF938BD012AFCD189
:10BFB000002CFAD0034800F05BF9F6E7EC19020810
:10BFC000B8190208580302082DE9F04104468846D2
:10BFD00016461F4604E0012388F80030E3B1E46808
:10BFE00040F28975AC4217D02568002DF7D094F83F
:10BFF00004C036EA0C0CF2D1637937EA0303EED0C1
:10C00000A26839463046A8470028E4D1012F01D064
:10C010000123E1E70023DFE72046BDE8F08170B5AA
:10C0200004460D46164600E0E468AC4210D0236892
:10C03000002BF9D094F804C036EA0C0CF4D16279E4
:10C0400012F0020FF0D1A268022130469847EBE7C8
:10C0500070BD38B505460C46FDF727FBE36813B104
:10C06000FDF727FB38BD2B68E3602C60F8E738B597
:10C0700004460D46FDF719FB01E003F10C042368AB
:10C0800040F28972934205D0AB42F6D1EB6823604F
:10C090000023EB60FDF70DFB38BD00002DE9F041FA
:10C0A00082B00D4601F014FA044601238DF80730E2
:10C0B000022808D0082806D0102804D01A4B1E6881
:10C0C0001A4B1F6803E0184B1F68184B1E68234665
:10C0D0002A460DF107013846FFF776FF80469DF8A6
:10C0E000073063B930469DF807300BB9012C0ED0EC
:10C0F0009DF80730B3B1002002B0BDE8F0812346BF
:10C100002A460DF107013046FFF75EFFEBE72A46AE
:10C1100001463046FFF783FF2A4641463846FFF77F
:10C120007EFFE5E70248E7E76C03020868030208C0
:10C13000FF00420038B50C4610212046FFF7AEFF45
:10C140000546042C01D0284638BD002004F0EAFA48
:10C15000034BA3FB0031890C012004F04FFCF2E7F4
:10C1600083DE1B4338B50C4608212046FFF796FFB7
:10C170000546082C01D0284638BD002004F0D2FA2C
:10C18000034BA3FB0031890C002004F037FCF2E7DD
:10C1900083DE1B4308B508460421FFF77FFF08BD77
:10C1A00010B50446FFF77AFF042C02D0082C17D0F4
:10C1B00010BD4FF0E0231B6913F0010F04D00E4BAC
:10C1C0001B7813B1012300E000230C4A1370002BED
:10C1D000EED04FF0E022136923F001031361E7E78B
:10C1E000064B1B78002BE3D04FF0E022136943F09D
:10C1F00001031361DCE700BF221A0208BC1A02081F
:10C2000008B50846012902D1044B1B881BB902213D
:10C21000FFF7C6FF08BD0248FCE700BF201A02086E
:10C22000FF00420008B508460121FFF7B9FF08BD2D
:10C2300038B584468E4615460C4C0FCCCCF8000021
:10C24000CCF80410CCF80820CCF80C3007CCCCF893
:10C250001000CCF81410CCF81820CCF800508CF852
:10C2600004E0604604F04CFD38BD00BFACA10210F4
:10C2700008B5014618B10348FFF7EBFE08BD01BE43
:10C28000F9E700BF6C03020808B5014618B103487E
:10C29000FFF7EDFE08BD01BEF9E700BF6C03020821
:10C2A00008B504F023FF38B9164A00211648FFF7F5
:10C2B000BFFF20B9154808BD04F06CFDF4E7144A2F
:10C2C00001211448FFF7B4FF08B91048F3E7124AF8
:10C2D00002211248FFF7ACFF08B90C48EBE7104AFF
:10C2E00003211048FFF7A4FF08B90848E3E70E4A06
:10C2F00004210E48FFF79CFF08B10020DBE703484C
:10C30000D9E700BF25C201109C1A0208011A0204D5
:10C3100001C201102C1A020895C10110481A020826
:10C3200065C10110801A020835C10110641A0208A3
:10C33000024600B101BE024B43F82210704700BF15
:10C34000B81A0208024600B101BE024B53F822009F
:10C35000704700BFB81A020808B504F0A3FA00201D
:10C3600008BD00B583B0ADF80000019219466846DB
:10C3700004F064FA03B05DF804FB000000231F2BF7
:10C3800006D8054A52F8232022B90133DBB2F6E77A
:10C390000020704701207047C01A020870B40139AC
:10C3A000072900F29080DFE801F085048E2F8E8E41
:10C3B0008E5E464B00221A70012028E00023537045
:10C3C0000131C9B2424B03EB00131B7B8B4211D9E5
:10C3D0003F4B03EB00135B7B0B443E4A52F8232098
:10C3E000002AEDD001238B402E681E42E6D00123A7
:10C3F0005370E5E70134E4B2012C07D8204623014D
:10C40000334AD5580021DDE70024F5E7012070BC50
:10C4100070470133DBB22E4A02EB0112127B9A42C3
:10C4200010D92B4A02EB0112527B1A44294D55F8C0
:10C430002220002AEDD05278002AEAD001229A4028
:10C440001043E6E700B1A0600CF1010C5FFA8CFC30
:10C45000BCF1010F0AD861464FEA0C131C4AD458AC
:10C4600000231846D7E74FF0000CF1E7174B0022E6
:10C470001A700120CBE70132D2B2154B03EB001347
:10C480001B7B934213D9124B03EB00135B7B1344CA
:10C49000104951F82330002BEDD059689B7A0433B2
:10C4A00001EB83135B68002BE5DA0020AFE7013076
:10C4B000C0B200E00020012801D80022DDE7012001
:10C4C000024B1870A3E701BE0120A0E7401B020841
:10C4D000C8A10210C01A0208EFF30582103A1FFA31
:10C4E00082FC12B2002301E00133DBB2012B11D830
:10C4F0001A4901EB0311897B8A42F5DB174800EBEF
:10C500000310007B08448242EEDA5FFA8CF2521A82
:10C51000D2B200E00022012B01D901BE704770B5F4
:10C520000E49180101EB03130C585B7B1A440C4BAA
:10C5300053F82250AB7A04EB8313D3F83C6126B155
:10C54000EB6913B13146286A9847AB7A04EB831440
:10C55000C4F83061D4F8303170BD00BFC8A10210FA
:10C56000C01A0208014B1878704700BF401B020830
:10C5700010B50446002306E003F11402002124F85C
:10C5800012100133DBB2042BF6D9FFF7F7FE50B1DE
:10C59000627A074B03EB02135B7BA27A1344054AD2
:10C5A00042F8234010BD0448FFF762FEF0E700BFE9
:10C5B000C8A10210C01A0208700302082DE9F04158
:10C5C0000546884617464378184E06EB03135C7BF6
:10C5D00083781C44E4B2FDF768F8154B53F8243017
:10C5E000C3F81C801F62FDF764F86B7806EB031636
:10C5F000B47BAB78E5186A090E4B53F8223005F08E
:10C600001F02D34013F0010F0DD12C460A4A03211B
:10C610002846FFF775FB05F01F0564090123AB40B1
:10C62000044A42F82430BDE8F08100BFC8A10210DE
:10C63000C01A020800E100E0D9C40110F0B49DF86E
:10C640001060456891F802C005EB8C14D4F83841AD
:10C650003EB122EA040705EB8C15C5F83071D5F818
:10C66000305140688D78AEB1144300EB8512C2F8AA
:10C6700038414878094A02EB0012927B89780A44D3
:10C680005B01DBB202F1604202F5614282F80033E5
:10C69000F0BC704724EA0204E7E700BFC8A102101B
:10C6A00010B94731C8B27047012800D001BE5531DA
:10C6B000C8B2704770B504460E461546407AA27A55
:10C6C000042D00F28480DFE805F003263D546B0062
:10C6D000636803EB821CDCF82031C3F30343DCF80E
:10C6E000201121F47021CCF82011616801EB821235
:10C6F000D2F8241141F44071C2F82411023BD9B29E
:10C70000FFF7CEFF01463046FFF7A0FA10B9143507
:10C7100024F8150070BD636803EB821CDCF820313F
:10C72000C3F30333DCF8201121F47041CCF820115D
:10C73000616801EB8212D2F8241141F0C001C2F805
:10C740002411DBE7636803EB821CDCF82031C3F3C0
:10C750000323DCF8201121F47061CCF8201161680A
:10C7600001EB8212D2F8241141F03001C2F82411F9
:10C77000C4E7636803EB821CDCF82031C3F30313C6
:10C78000DCF8201121F0F001CCF82011616801EBF8
:10C790008212D2F8241141F00C01C2F82411ADE745
:10C7A000636803EB821CDCF8203103F00F03DCF834
:10C7B000201121F00F01CCF82011616801EB8212E9
:10C7C000D2F8241141F00301C2F8241196E7014880
:10C7D000A0E700BF0022020438B5054638B36A7AE4
:10C7E000314B03EB02139B7BAA7A99180B4601F09D
:10C7F0001F015B0901228A4020332C4941F8232084
:10C80000BFF34F8FBFF36F8F6B68002B35D06A7A01
:10C81000254B03EB02135B7BAA7A1344244A0021C5
:10C8200042F82310FFF7AAFD18B1002307E001BE6C
:10C83000D5E72048FFF728FDF7E70133DBB2042BEB
:10C84000FBD9002401E00134E4B2042C0AD804F13D
:10C85000140335F813100029F5D022462846FFF7B7
:10C8600029FFF0E76A68A97A01238B4053602B788F
:10C8700033B100236B601E232B722B7D2BB938BD87
:10C8800005F10800FEF7D2FFF3E7287B697B00F093
:10C89000030003F08DF800B101BE05F10C00FEF7B6
:10C8A000D4F800232B75EAE7C8A1021000E100E0EC
:10C8B000C01A020870030208F0B583B004460E46A1
:10C8C000037D53B10025154B93E8030002AB03E948
:10C8D000030025B1284603B0F0BD114DF3E704F184
:10C8E0000C07002211463846FEF74DF808B10D4DF1
:10C8F000F0E76A4631463846FEF779F808B1094D47
:10C90000E8E7002201213846FEF73DF808B1054D61
:10C91000E0E73846FEF74EF8A061DBE7E8A1021039
:10C92000031D0204011D0204F8B504460E4600F181
:10C930000801437A27481D0100EB0313405960604A
:10C940001879A37A1844C7B2D2B104F10C03D2E922
:10C95000000183E803001846FEF72CF8A061217B54
:10C96000627B01F00301384602F0A4FF38BB324677
:10C97000A17A606804F0E0FB054615B32846F8BDCF
:10C9800001231A4604F10C0000F0FAFD054610B12F
:10C99000002DF2D1EBE7012323750F492046FFF765
:10C9A0008BFF05460028F3D1217B627B01F0030158
:10C9B000384602F07FFF0028EAD0084DDDE7074D3A
:10C9C000DBE72046FFF7D4FD6268A17A01238B40A4
:10C9D0009360D3E7C8A1021040420F00011D02047A
:10C9E00070B51446064620B1FF2904D00F4D2846E5
:10C9F00070BD01BEF8E73822002130460AF034FA53
:10CA000031461E2301F8083F1A20FFF70FF80546AC
:10CA100028B1002DEBD03046FFF7DEFEE7E72246D7
:10CA200003493046FFF780FF0546F2E7001D020488
:10CA3000F0A1021010B5044668B1FFF793FD60B98C
:10CA40006168A27A012303FA02F28A606268A17A1D
:10CA50008B40936110BD01BEEFE70148FAE700BFCC
:10CA6000031A0204024640B15368917A526B03EBF9
:10CA70008113C3F808210020704701BEF4E70000CD
:10CA800070B594B004460D46CB6843634C222049F0
:10CA900001A80AF0EDFA6B680193AB6806932B7856
:10CAA00083F001030393AB7853B1002305936B78B4
:10CAB000012B07D0022B07D043B301BE002304E0B3
:10CAC0000223F3E7012300E0032304936068A17AC3
:10CAD00000EB8113D3F8386101AA04F0BFFB01AA6F
:10CAE000A17A606804F028FB05466268A17A0123F8
:10CAF0008B4093606368A27A03EB8213C3F83861BA
:10CB00002046FFF7AFFF284614B070BD0023DCE7D6
:10CB1000F0A10210012803D0022803D1032070479E
:10CB200002207047002070470138032809D8DFE849
:10CB300000F0020B04060220704706207047082010
:10CB4000704701BE0220704704207047814206D919
:10CB5000091A642303FB01F1B1FBF0F07047411A9D
:10CB6000642303FB01F1B1FBF0F070472DE9F04FB6
:10CB700087B004460D46174698469DF840901E2300
:10CB8000037100234373FF23C371037243728372E3
:10CB9000994218D0FF2F1AD0FF2D02D1FF2F00F09D
:10CBA000DF80FCF782FD82466E4B1E68FF2D13D19D
:10CBB000FF2F18D1B8F1FF0F1CD1B9F1FF0F20D111
:10CBC00036B300232BE09945E4D0674E9CE0B8F1E2
:10CBD000FF0FE1D0644E97E0132264492846FFF727
:10CBE0008BF90640E4E7132261493846FFF784F9E0
:10CBF0000640DFE712225F494046FFF77DF9064015
:10CC0000DBE712225C494846FFF776F90640D7E792
:10CC10005046FCF74EFD544E76E00133DBB226FA67
:10CC200003F212F0010FF8D017228DF814208DF8BE
:10CC3000153000238DF8163005AB13224B492846DA
:10CC4000FFF718F9834605AB132249493846FFF729
:10CC500011F9029005AB122246494046FFF70AF946
:10CC6000019005AB122244494846FFF703F90390AF
:10CC7000FF2D02D0BBF1000F0DD0FF2F01D0029B82
:10CC80004BB1B8F1FF0F01D0019B23B1B9F1FF0FF8
:10CC900002D0039B03B901BE05A8FEF783FD06463B
:10CCA0005046FCF706FD7EBB059BA3801B0CA371C1
:10CCB000FF2D2DD10EB9FF2F33D15EB9019B4BB1A2
:10CCC0000821184600F09CFB064618B90123E372C0
:10CCD00084F809805EB9039B4BB10621184600F029
:10CCE0008FFB064618B90123237384F80A9056B9BE
:10CCF000119BFBB10023637304F11003119A92E8B6
:10CD0000030083E8030016B3304607B0BDE8F08F98
:10CD10000621584600F074FB06460028CAD1257249
:10CD2000C8E70821029800F06BFB06460028C4D132
:10CD3000E771C2E701231A46211D04F1100000F03B
:10CD40001FFC0646B0FA80F35B096373DBE7217CC6
:10CD5000627C01F00301607902F0ACFD0646D3E786
:10CD6000014ED1E748A10210001F0204F8980210FA
:10CD7000AC9802101C980210649802102DE9F84338
:10CD80000446037AFF2B0CD0D908772B05D84C48E2
:10CD90000068866906EBC11604E0494909688E6996
:10CDA00000E00026A17AFF290ED0207BD0B1C80870
:10CDB000772905D8424D2D68AF6907EBC01704E00D
:10CDC0003F480068876900E0002703F0070501F08D
:10CDD0000708013A072A65D8DFE802F0064F6468C1
:10CDE0006464644F0027F0E7A14659F8180B4946E0
:10CDF00002F088FB10F0010F01D0002054E04946FA
:10CE0000206802F07DFB10F0010F51D12168D1F8AC
:10CE10000832C3F30803D1F80822C2F3C032D34268
:10CE200048D1D1F80833C3F30803002B44D176B1BD
:10CE30002946304601F058F884F8980029463046D3
:10CE400001F085F800222946304600F0DDFF77B179
:10CE50004146384601F048F884F899004146384682
:10CE600001F075F800224146384600F0CDFF4946F2
:10CE7000206802F0A1FA012016E02268136843F04E
:10CE8000004313602EB194F898202946304600F0F4
:10CE9000BBFF9FB194F899204146384600F0B4FF9B
:10CEA000012001E001BE0020BDE8F8830120FBE77E
:10CEB0000020F9E70020F7E70020F5E70120F3E77D
:10CEC000481B0208F8B5314D2E68FEF7BFFF2860F9
:10CED000002859D00446014651F8180BD0F88C5F51
:10CEE000D0F8CC7F02F010FB15F0200F09D023689A
:10CEF0002022C3F8802FD3F8803FE36C0BB110469B
:10CF0000984715F0400F09D023684022C3F8802FBE
:10CF1000D3F8803FE36C0BB12020984715F0010F48
:10CF200004D0E36C13B14FF48070984715F4007F80
:10CF300013D023684FF40072C3F8802FD3F8803FDA
:10CF40002268D2F8883F43F4007123F4EE6323F0A3
:10CF5000030303B101BEC2F8881F17F0400F09D0C8
:10CF600023684022C3F8C02FD3F8C03FE36C0BB155
:10CF70001020984717F0010F04D0E36C13B14FF461
:10CF800000709847014B1E60F8BD00BF441B0208AB
:10CF900038B50C46154603F0D5FB05FB04F4B0FB91
:10CFA000F4F038BD2DE9F84380460E460824FF27EB
:10CFB000A14601E00134E4B2102C15D806FB04F5BB
:10CFC00003F0C0FB00EB55012246B1FBF5F14046F2
:10CFD000FFF7DEFF01463046FFF7B8FDC0B28742DB
:10CFE000E8D90746A146E5E74846BDE8F8830000D2
:10CFF00070B504464079FEF7E3FE0546184B53F83A
:10D000002000214641F8540B04F1180202F024F8E4
:10D01000064608B1304670BD0023C4F89C30C4F801
:10D02000A030C4F894300F4B33F915500E4A032149
:10D030002846FEF765FE002D07DB05F01F026D098F
:10D0400001239340094A42F82530094A2146607974
:10D05000FEF78AFF2268136843F000431360D9E7A4
:10D060004CA1021090A10210C5CE011000E100E019
:10D070007DCD011010B5044688B1206840B104F19F
:10D08000180102F099F9206802F072F90023236078
:10D0900023791E2B05D194F8A43033B310BD01BE03
:10D0A000EBE76079FEF78CFE1B4B33F91030002B59
:10D0B0000CDB03F01F015B0901228A402033174972
:10D0C00041F82320BFF34F8FBFF36F8F002211462B
:10D0D0006079FEF749FF94F8A43013B11E23237141
:10D0E000D9E7201DFEF7A2FBF8E7E01D00F07DF96F
:10D0F00004F1080000F079F904F10A0000F075F974
:10D1000004F1090000F071F9637B002BC6D004F133
:10D110001000FDF79AFCC1E790A1021000E100E0C9
:10D12000437B0BB9334870472DE9F04704460E4660
:10D1300090460546002155F8100B02F03DF90022FB
:10D1400011462846FDF71FFC30B12268136843F0F2
:10D1500000431360BDE8F08704F1040931464846F6
:10D16000FFF720FF0746A06500FB06F603F0EAFA8A
:10D1700000EB5600B0FBF6F631462846FDF74EFCB4
:10D18000824640BB3A4631464846FFF701FFB8F1B8
:10D19000000F01D0C8F80000002201212846FDF749
:10D1A000F2FB94F8703013B34FF48033E26D082A29
:10D1B00001D84FF4006A43EA0A03013F07F00F0762
:10D1C0003B43226843F0007313602268136843F006
:10D1D00000431360BEE7002201212846FDF7D3FB80
:10D1E0002268136843F0004313605046B2E7534689
:10D1F000DCE700BF061F0204F8B506460F461546D9
:10D20000FEF7ACFEA8B93368D3F840332C4602E0F1
:10D210003368D3F84033B3F1FF3F07D1002DF7D087
:10D220004CB1012003F03EFB013CF1E73B700020D4
:10D23000F8BD0248FCE70248FAE700BF031A0204FF
:10D24000021F020438B504460D46FEF787FE28B1DA
:10D25000044806E02946206801F0EFFD0028F9D0D7
:10D26000002038BD031A020408B5034630B139B1B5
:10D2700053F8180B02F0ACF8002008BD01BEF6E729
:10D2800001BEF5E72DE9F04182B00C4616469846FE
:10D290000A9F0546002844D0A8220021284609F00C
:10D2A000E3FD099B01939DF82030009343463246ED
:10D2B00021462846FFF75AFC044618BB05F1540CDA
:10D2C0001F4C0FCCACE80F000FCCACE80F000FCC1C
:10D2D000ACE80F0094E80F008CE80F00EB7A85F8BB
:10D2E00074305FB13B68EB653879FFF71DFC85F85A
:10D2F0006100387AFFF70EFC85F862002846FFF7D8
:10D3000077FE044644B92FB1F96819B13A69284645
:10D31000FFF7AAFF6B7B33B96CB9204602B0BDE8BA
:10D32000F08101BEB8E700224FF4E1312846FFF753
:10D33000F7FE0446F0E72846FFF79CFEEDE700BF46
:10D340003CA2021070B59DF81060FF2803D005467E
:10D350004FF0000C0DE0002020E036B993F802E019
:10D360004478A64517D0002400E00124B4B90CF19C
:10D37000010C944511D24FEA8C0401EB8C0090F81B
:10D3800002E0AE45F3D14BB193F801E00C5DA64548
:10D39000E3D00024EAE70124E8E7002070BD2DE98E
:10D3A000F04383B08046894616461F46002400E0BD
:10D3B0000134BC4214D206EB840595F802C0C44582
:10D3C000F6D18DF8049016F824308DF805306B787E
:10D3D0008DF8063001A8FEF7E5F90028E8D100E055
:10D3E0000025284603B0BDE8F08310B50446007858
:10D3F000FF2800D110BD00F037F8FF232370F9E7B4
:10D4000070B584B004460D4683780B228DF8002059
:10D41000DA088DF8012003F007038DF80230009B35
:10D42000ADF80C301B0C8DF80E30039BADF80830B6
:10D430001B0C8DF80A30029BADF804301B0C8DF8E4
:10D44000063001A8FEF7AEF9064610B1304604B02A
:10D4500070BD29462046FEF707FC06460028F5D099
:10D4600001A8FEF7E3F9F1E710B584B00446FEF732
:10D470002BFC00B101BE0B238DF80030E3088DF8C2
:10D48000013004F007048DF80240009BADF80C3029
:10D490001B0C8DF80E30039BADF808301B0C8DF87B
:10D4A0000A30029BADF804301B0C8DF8063001A841
:10D4B000FEF7BCF904B010BD431E072B05D8DFE80A
:10D4C00003F0060604060404040601BE01207047AA
:10D4D000431E072B05D8DFE803F006060406040404
:10D4E000040601BE0120704738B5012807D0022884
:10D4F0000CD010B101BE002000E0881A38BD8A1A95
:10D500000F4B03FB02F292FBF1F0F7E700238A1ABC
:10D5100063EB030E90184EEB0E0C80184EEB0C0CC8
:10D520004FEA4C1444EAD064450140194CEB040C1A
:10D5300080180A464EEB0C0108F01AFCDEE700BF2B
:10D5400040420F00122817D8DFE800F00A180C0E2E
:10D55000161616161616161616121610161614008D
:10D560000820704704207047012070470220704750
:10D570000620704706207047012070471020704732
:10D580002DE9F04383B0044616461F460B4691B181
:10D5900019780539182943D8DFE801F03A424242A8
:10D5A0004242420F424242424242420F1C42422AFF
:10D5B00042424242230001BEEAE7274B93E80300C0
:10D5C00002AB03E9030069462046FDF7A5F903B065
:10D5D000BDE8F083214B93E8030002AB03E90300AD
:10D5E000F1E71F4B93E8030002AB03E90300EAE70E
:10D5F0005B7833B91B4B93E8030002AB03E90300EC
:10D60000E1E7164B93E8030002AB03E90300DAE716
:10D6100001BE1548DBE74FF001090EE001BE0EE048
:10D620000025A9461148032DD1D8114B13F80580C8
:10D630004645F0D0B9F1000F0CD0002CEED0FDF72C
:10D640003BF9024641462046FDF73AF90028BED094
:10D65000002FBCD00135E6E7F09F0210F89F0210C2
:10D6600000A0021008A0021002020204020E02042E
:10D670007CA20210014B1860704700BF481B0208D3
:10D680008446002800F0F080002900F0EF800B783D
:10D69000032B00D901BE4B78032B00D901BE8B7838
:10D6A000032B00D901BE0B79032B00D901BE8B7966
:10D6B000012B00D901BECB79012B00D901BECB785B
:10D6C000012B00D901BE4B79022B00D901BE0B7A88
:10D6D000032B00D901BE0B7803F003034A789200B4
:10D6E00002F00C0213438A78120102F03002134355
:10D6F0000A799201D2B213438A79920602F08062CB
:10D700001343CA79D20602F000621343CA781206A4
:10D7100002F0807213434A79120702F04052134319
:10D720000A7A43EA8273CCF80030CB68CCF8043034
:10D730000B69CCF808300B7A032B00F29980DFE8F4
:10D7400003F002072D73CB6ACCF80C300020704731
:10D750004B6903F50063B3F5805F00D301BE8B69AD
:10D7600003F50063B3F5805F00D301BECB69013BD5
:10D77000FF2B00D901BE4B69C3F30B0388693E4AF6
:10D7800002EA00321343CA69013A43EA0263CCF861
:10D790000C30CB6ACCF81030002070474B6903F591
:10D7A0000063B3F5805F00D301BE8B6903F50063AE
:10D7B000B3F5805F00D301BECB69013BFF2B00D9DD
:10D7C00001BE0B6A03F50063B3F5805F00D301BEB1
:10D7D0004B6A03F50063B3F5805F00D301BE8B6A2B
:10D7E000013BFF2B00D901BE4B69C3F30B038869D2
:10D7F000214A02EA00300343C869013843EA006362
:10D80000CCF80C300B6AC3F30B03486A02EA00320F
:10D8100013438A6A013A43EA0263CCF81030CB6AB8
:10D82000CCF8143000207047144B1B6893F82E304E
:10D830001F2B1FD94B6903F50063B3F5805F00D33D
:10D8400001BECB69013BFF2B00D901BE4B69C3F37D
:10D850000B03CA69013A43EA0263CCF80C30CB6A85
:10D86000CCF81030002070470548704704487047D6
:10D87000034870470248704700F0FF00481B020849
:10D8800001004E0000287CD08446002A7BD013681B
:10D89000002B7AD03F4B98425AD03F4B1B6893F8ED
:10D8A00036308B4294BF00230123002B6FD030B55C
:10D8B0009368032B00D901BE1468364B9C4550D0A9
:10D8C000354B1B6893F83630994234BF002301234F
:10D8D00003B101BE304B1868B0F85E306344B0F855
:10D8E000605005FB0133DC60B0F85E30B0F86000DA
:10D8F000634400FB01339868000C000498601379BE
:10D90000002B37D0244B1B6893F863304FF0010E87
:10D910000EFA03FE93682048046894F86250AB4006
:10D920000320A840034043EA0E03107B28B34FF0C6
:10D9300000400343527B12B30425B4F85E006044F8
:10D94000B4F8602001FB02F22B438350002030BD6D
:10D95000114B1B6893F835308B4294BF0023012391
:10D96000A3E70D4B1B6893F83530994234BF002371
:10D970000123ADE74FF0000ECCE70020D9E70025EA
:10D98000DBE706487047054870470448704703487E
:10D99000704700BF00002840481B020801004E00ED
:10D9A000844628B3032925D832B3136833B35368A8
:10D9B000032B00D901BE10680CEB012303F5815342
:10D9C000186053681B0203F44073107A60B14FF083
:10D9D00000400343527A4AB1042213431031090232
:10D9E0004CF80130002070470020F2E70022F4E7F5
:10D9F0000348704702487047014870470048704725
:10DA00000100FE000368C3F3027213F0E04F00D17F
:10DA100001BE042A07D00139B1F5803F00D301BE11
:10DA200089B2C16070474B1EB3F5004F00D301BEF1
:10DA30004900013989B281607047024648B11368D4
:10DA4000C3F30273042B0DD8DFE803F005090B07BD
:10DA5000050001BEF3E7D160704711617047516165
:10DA60007047D16170470000002800F0B88038B5D9
:10DA70000C460546002900F0B4800B78032B00D932
:10DA800001BE6378032B00D901BEA378032B00D914
:10DA900001BE2379032B00D901BEE379012B00D904
:10DAA00001BE237A012B00D901BEE378012B00D9F6
:10DAB00001BEA379022B00D901BE637A042B00D9E1
:10DAC00001BE237803F003036278920002F00C0297
:10DAD0001343A278120102F030021343227992011B
:10DAE000D2B213436279002A36D04FF480721343C6
:10DAF000E279920602F080621343227AD20602F0A3
:10DB000000621343E278120602F080721343A27996
:10DB1000120402F440321343627A120702F0E04228
:10DB200013432B60E2686A60627A042A04D0226997
:10DB30001B0F042B12D0AA60637A8BB9E16A2846C6
:10DB4000FFF77BFF637A013BDBB2012B0DD9637AD0
:10DB5000022B1ED0002038BD0022C8E701BEEAE734
:10DB6000E1692846FFF74EFFE8E7636903F50043E4
:10DB7000B3F5803F00D301BEA36903F50043B3F5BD
:10DB8000803F00D301BEA38AA26943EA02432B610E
:10DB9000DDE7A36A2A68C2F30272022A00D001BE3E
:10DBA000013BB3F5803F00D301BEEA8A9BB243EA52
:10DBB00002436B61236A03F50043B3F5803F00D352
:10DBC00001BE636A03F50043B3F5803F00D301BE95
:10DBD000238C626A43EA0243AB610020BBE7024840
:10DBE00070470148B7E700BF0100FE00C0F308001E
:10DBF000B0FA80F040097047B0F1204F3CD018D8FF
:10DC000080283BD007D9B0F5807F3FD0244B984285
:10DC100009D024487047102832D0402801D122482A
:10DC2000704700282ED170474FF4A40070471D485C
:10DC300070471E4B98422BD02DD31D4B98422CD8A9
:10DC4000B0F1704F12D900F1805001380428EED89D
:10DC500001A353F820F000BF29DC01102FDC0110D4
:10DC600089DC011071DC011075DC01100D48704772
:10DC70001048704710487047002070470F487047A1
:10DC80000F487047074870470E4870470448704770
:10DC90004FF4A0007047034870470248C3E700BF35
:10DCA00006005200FF00520002005000090000A0D0
:10DCB000050000F00200520003005200050052006F
:10DCC000010050000100520010B5104B1B6893F882
:10DCD0003330012B00D801BE0C4B1C68236AB4F80A
:10DCE000BA201344D4F8BC20D358002B0BDB084BCC
:10DCF0001868FFF781FF636801229A6063689B6878
:10DD0000002BFBD110BD0348FCE700BF481B0208F5
:10DD10004C1B02080200500010B50446FFF766FFD6
:10DD200008B9134810BD03F0B9FC124B124A1A602F
:10DD30005C6000229A60DA60104B1B6893F85430E4
:10DD40007BB102F00CFD0E4BA3FB00239B090D4998
:10DD5000B1FBF3F101F698014FF480700BF028FA53
:10DD6000E0E700214FF480700BF022FADAE700BF01
:10DD7000060052004C1B02080001001C481B020850
:10DD8000D34D621060F5900038B505460C46FFF79C
:10DD90002DFF28B334B303F081FC134B134A1A60F0
:10DDA00000225A609D60DC60114B1B6893F8523072
:10DDB00083B102F0D4FC0F4BA3FB00239B090E4957
:10DDC000B1FBF3F101F5195108314FF480700BF0FC
:10DDD000EFF906E000214FF480700BF0E9F900E064
:10DDE000064838BD0548FCE74C1B02080001000549
:10DDF000481B0208D34D6210C0EA21010600520000
:10DE000008B5FFF761FF08BD10B5072900D901BEAD
:10DE100032F01F0300D001BE154B1B689C69001B2C
:10DE2000C0095B694FEA001C03EB001003290FD8FF
:10DE300053F80C00C9004FF01F0E0EFA01FE20EA45
:10DE40000E0002F01F028A40024343F80C2010BD6E
:10DE500004394368C9004FF01F0C0CFA01FC23EA97
:10DE60000C0302F01F028A401A434260EFE700BF32
:10DE7000481B0208F8B507460D4614461E469DF895
:10DE80001820072900D901BE34F00F0303D1012C5B
:10DE900001D0092C00D101BE012E00D901BE32F003
:10DEA0001F0300D001BE29463846FFF7ADFF3B688F
:10DEB0000122AA4023EA020306F00106AE401E43F7
:10DEC0003E60084B1B6893F881107B58AD000F2211
:10DED000AA4023EA020304F00F04AC401C437C5028
:10DEE000F8BD00BF481B0208072900D901BE0C4B32
:10DEF0001B689A69801AC0095B69020103EB001074
:10DF0000032905D89858C900C84000F01F00704781
:10DF100004394068C900C84000F01F00704700BFC6
:10DF2000481B0208082900D901BE0069C84000F05A
:10DF300001007047072900D901BE012A00D901BE9E
:10DF400001238B400AB943607047836070470729FB
:10DF500000D901BE01238B4083607047072900D997
:10DF600001BE01238B40C3607047000000B5072944
:10DF700000D901BE32F00F0303D1012A01D0092AD2
:10DF800000D101BE89000A4B1B6893F881E050F86C
:10DF90000E304FF00F0C0CFA01FC23EA0C0302F0D8
:10DFA0000F028A401A4340F80E205DF804FB00BFC0
:10DFB000481B020800B5072900D901BE012A00D973
:10DFC00001BE0A4B1B6893F882E050F80E304FF008
:10DFD000010C0CFA01FC23EA0C0302F001028A4056
:10DFE0001A4340F80E205DF804FB00BF481B0208EE
:10DFF000082900D901BE012A00D901BE83694FF06A
:10E00000010C0CFA01FC23EA0C0302F001028A4025
:10E010001A4382617047000000B5082900D901BE8B
:10E02000032A00D901BE4900094B1B6893F880E020
:10E0300050F80E304FF0030C0CFA01FC23EA0C03ED
:10E0400002F003028A401A4340F80E205DF804FBF8
:10E05000481B0208002800F09F80F8B50D461446C2
:10E060000646002A00F09A80072900D901BE2368DD
:10E07000012B00D901BE636833F00F0203D1012BDD
:10E0800001D0092B00D101BE237A33F01F0300D049
:10E0900001BEE368032B00D901BE2369012B00D91F
:10E0A00001BE6369012B00D901BE236A012B00D98F
:10E0B00001BE636A012B00D901BEA36A012B00D9FE
:10E0C00001BEE36A032B00D901BE236B072B00D9E5
:10E0D00001BEE369032B00D901BEA369012B00D95E
